{
  "transactions": [
    {
      "hash": "0xf8033f0a92f06eb0b92b0a0d558539a2a3a25f3abb65a88f2aab698ee340a31e",
      "transactionType": "CALL",
      "contractName": null,
      "contractAddress": "0xbb852708b2f3ee638191fd85ed54e847c97a4ee6",
      "function": "propose(address[],uint256[],bytes[],string)",
      "arguments": [
        "[0x62aC8c00Bf82597E8419b464DD3baFff542c31AA]",
        "[0]",
        "[0x64d623530000000000000000000000000000000000000000000000000000000000015180]",
        "Proposal #1: Update timelock delay to 1 day"
      ],
      "transaction": {
        "from": "0xed1c15066d910472f98d7cee9ff1da6f026c0e57",
        "to": "0xbb852708b2f3ee638191fd85ed54e847c97a4ee6",
        "gas": "0x199e0",
        "value": "0x0",
        "input": "0x7d5e81e2000000000000000000000000000000000000000000000000000000000000008000000000000000000000000000000000000000000000000000000000000000c0000000000000000000000000000000000000000000000000000000000000010000000000000000000000000000000000000000000000000000000000000001a0000000000000000000000000000000000000000000000000000000000000000100000000000000000000000062ac8c00bf82597e8419b464dd3bafff542c31aa0000000000000000000000000000000000000000000000000000000000000001000000000000000000000000000000000000000000000000000000000000000000000000000000000000000000000000000000000000000000000000000000010000000000000000000000000000000000000000000000000000000000000020000000000000000000000000000000000000000000000000000000000000002464d62353000000000000000000000000000000000000000000000000000000000001518000000000000000000000000000000000000000000000000000000000000000000000000000000000000000000000000000000000000000000000002b50726f706f73616c2023313a205570646174652074696d656c6f636b2064656c617920746f203120646179000000000000000000000000000000000000000000",
        "nonce": "0xc6",
        "chainId": "0xaa36a7"
      },
      "additionalContracts": [],
      "isFixedGasLimit": false
    }
  ],
  "receipts": [
    {
      "type": "0x2",
      "status": "0x1",
      "cumulativeGasUsed": "0xb8fc70",
      "logs": [
        {
          "address": "0xbb852708b2f3ee638191fd85ed54e847c97a4ee6",
          "topics": [
            "0x7d84a6263ae0d98d3329bd7b46bb4e8d6f98cd35a7adb45c274c8b7fd5ebd5e0"
          ],
          "data": "0xcfa0815cf0a564eb3fb13dc43981960b9f7fc4f071c01d6c6ca17818f3be16f7000000000000000000000000ed1c15066d910472f98d7cee9ff1da6f026c0e570000000000000000000000000000000000000000000000000000000000000120000000000000000000000000000000000000000000000000000000000000016000000000000000000000000000000000000000000000000000000000000001a000000000000000000000000000000000000000000000000000000000000002000000000000000000000000000000000000000000000000000000000000a49f510000000000000000000000000000000000000000000000000000000000a5643100000000000000000000000000000000000000000000000000000000000002a0000000000000000000000000000000000000000000000000000000000000000100000000000000000000000062ac8c00bf82597e8419b464dd3bafff542c31aa0000000000000000000000000000000000000000000000000000000000000001000000000000000000000000000000000000000000000000000000000000000000000000000000000000000000000000000000000000000000000000000000010000000000000000000000000000000000000000000000000000000000000020000000000000000000000000000000000000000000000000000000000000000000000000000000000000000000000000000000000000000000000000000000010000000000000000000000000000000000000000000000000000000000000020000000000000000000000000000000000000000000000000000000000000002464d62353000000000000000000000000000000000000000000000000000000000001518000000000000000000000000000000000000000000000000000000000000000000000000000000000000000000000000000000000000000000000002b50726f706f73616c2023313a205570646174652074696d656c6f636b2064656c617920746f203120646179000000000000000000000000000000000000000000",
          "blockHash": "0xddb22b6a571ab5e1b865c25a9b4f0575cc589ff42b725e71caea750584c1e423",
          "blockNumber": "0xa48331",
          "blockTimestamp": "0x69f7326c",
          "transactionHash": "0xf8033f0a92f06eb0b92b0a0d558539a2a3a25f3abb65a88f2aab698ee340a31e",
          "transactionIndex": "0x4f",
          "logIndex": "0x14d",
          "removed": false
        }
      ],
      "logsBloom": "0x00000000000000000000000000000000000000000000010000000000000000000000000000000000000000000000000000000000000000000000000000000000000000000002000000000000000000000000000000000000000000000000080000000000000000000000000000000000000000000000000000000000000000000000000000000000000000000000000000000000000000000000000000000000080000000000000000000000000000000000000000000000000000000000000200000000000000000000000000000000000000000000000000000000000000000000000000000000000000000000000002000000000000000000000000000000",
      "transactionHash": "0xf8033f0a92f06eb0b92b0a0d558539a2a3a25f3abb65a88f2aab698ee340a31e",
      "transactionIndex": "0x4f",
      "blockHash": "0xddb22b6a571ab5e1b865c25a9b4f0575cc589ff42b725e71caea750584c1e423",
      "blockNumber": "0xa48331",
      "gasUsed": "0x128bf",
      "effectiveGasPrice": "0xf5ae2",
      "from": "0xed1c15066d910472f98d7cee9ff1da6f026c0e57",
      "to": "0xbb852708b2f3ee638191fd85ed54e847c97a4ee6",
      "contractAddress": null
    }
  ],
  "libraries": [],
  "pending": [],
  "returns": {},
  "timestamp": 1777807985355,
  "chain": 11155111,
  "commit": "851d6d4"
}